:020000040800F2
:1000000000100020713A00085934000863340008D9
:1000100000000000000000000000000000000000E0
:10002000000000000000000000000000693400082B
:100030000000000000000000733400087D34000858
:10004000C13A000800000000C13A0008C13A0008A7
:10005000C13A0008C13A0008C13A0008C13A000894
:1000600000000000C13A00089D340008C13A0008B1
:10007000C13A0008C13A0008C13A00080000000077
:10008000C13A00080000000000000000C13A00086A
:1000900000000000C13A0008C13A0008C13A000857
:1000A00000000000C13A000800000000C134000850
:1000B0000000000000000000000000000000000040
:1000C00010B5064C2378002B07D1054B002B02D02E
:1000D000044800E000BF0123237010BD040000208D
:1000E000000000000C3B0008044B10B5002B03D0AF
:1000F0000349044800E000BF10BDC04600000000F6
:10010000080000200C3B0008002243088B4274D3F7
:1001100003098B425FD3030A8B4244D3030B8B4208
:1001200028D3030C8B420DD3FF22090212BA030C11
:100130008B4202D31212090265D0030B8B4219D3F2
:1001400000E0090AC30B8B4201D3CB03C01A524112
:10015000830B8B4201D38B03C01A5241430B8B425A
:1001600001D34B03C01A5241030B8B4201D30B0343
:10017000C01A5241C30A8B4201D3CB02C01A52416A
:10018000830A8B4201D38B02C01A5241430A8B422D
:1001900001D34B02C01A5241030A8B4201D30B0216
:1001A000C01A5241CDD2C3098B4201D3CB01C01A30
:1001B000524183098B4201D38B01C01A524143093A
:1001C0008B4201D34B01C01A524103098B4201D328
:1001D0000B01C01A5241C3088B4201D3CB00C01A95
:1001E000524183088B4201D38B00C01A524143080D
:1001F0008B4201D34B00C01A5241411A00D2014632
:10020000524110467047FFE701B5002000F006F8A4
:1002100002BDC0460029F7D076E770477047C04658
:1002200080B500AF074B074A126810210A431A60D5
:10023000002000F009F803F027F800231800BD465D
:1002400080BDC0460020024080B582B000AF78601B
:1002500001F0A0FC0200FA2399001000FFF754FF00
:100260000300180000F0F0F8796801235B420022D7
:10027000180000F0C3F800231800BD4602B080BD8E
:1002800080B500AF034B1B685A1C024B1A60C04676
:10029000BD4680BD2400002080B500AF024B1B6826
:1002A0001800BD4680BDC0462400002080B582B045
:1002B00000AF0200FB1D1A70064BFA1D12781100E8
:1002C0001F220A40012191400A001A60C046BD4623
:1002D00002B080BD00E100E0B0B582B000AF020026
:1002E0003960FB1D1A70FB1D1B787F2B32D92F4CF8
:1002F000FB1D1B781A000F231340083B99082B4A5B
:10030000FB1D1B7818000F230340083B9B08063396
:100310009B00D31804331B68FA1D127810000322C7
:100320000240D200FF2090400200D2431A403B68B6
:100330009B01FF201840FB1D1B781D0003232B4051
:10034000DB00984003001A438B1D9B00E318043325
:100350001A6027E0164CFB1D1B785BB29B08144902
:10036000FA1D127852B29208C03292005258F91D0A
:100370000978080003210140C900FF2088400100DE
:10038000C94311403A689201FF201040FA1D1278CB
:10039000150003222A40D200904002000A43C033D5
:1003A0009B001A51C046BD4602B0B0BD00ED00E052
:1003B00000E100E080B582B000AF78607B68013B6F
:1003C0000C4A934201D9012310E00B4B7A68013AA1
:1003D0005A6001235B4203211800FFF77DFF064BA3
:1003E00000229A60044B07221A6000231800BD46C1
:1003F00002B080BDFFFFFF0010E000E080B584B0D8
:1004000000AFB9607A600F23FB18021C1A70BA683B
:100410000F23FB181B785BB211001800FFF75CFF7D
:10042000C046BD4604B080BD80B582B000AF0200BA
:10043000FB1D1A70FB1D1B785BB21800FFF736FF1F
:10044000C046BD4602B080BD80B582B000AF7860C6
:100450007B681800FFF7AEFF03001800BD4602B02E
:1004600080BD000080B582B000AF78607B68042B4F
:1004700006D1084B074A126804210A431A6005E0B6
:10048000044B044A126804218A431A60C046BD46E0
:1004900002B080BD10E000E080B500AF00F003F8CE
:1004A000C046BD4680BD80B500AFC046BD4680BDDC
:1004B00080B584B000AF78600023FB607B68002BC0
:1004C00001D1012342E07B682122022199547B68FB
:1004D0001B681B68FB60FB681E4A1340FB607B685F
:1004E0005A687B689B681A437B68DB681A437B68A1
:1004F0001B691A437B685B691A437B689B691A43D3
:100500007B68DB691343FA681343FB607B681B68F5
:10051000FA681A607B68180000F006F97B68002210
:100520009A627B680022DA627B6800221A637B6829
:1005300000225A637B6800229A637B682122012192
:1005400099547B6820220021995400231800BD464D
:1005500004B080BD0FC0FFFF80B584B000AF7860ED
:100560000F23FB1800221A707B6821229B5CDBB2F0
:10057000022B07D07B6804229A630F23FB18012209
:100580001A7028E07B681B687A68126812680E216E
:100590008A431A607B681B687A68126812680121B6
:1005A0008A431A607B68DB6B7A68126C0121914088
:1005B0000A005A607B682122012199547B6820221D
:1005C000002199547B685B6B002B04D07B685B6BCC
:1005D0007A68100098470F23FB181B781800BD4657
:1005E00004B080BD80B584B000AF78607B68DB6B01
:1005F0001B68FB607B681B681B68BB607B681B6CAF
:1006000004229A401300FA68134024D0BB680422E5
:10061000134020D07B681B681B682022134007D141
:100620007B681B687A681268126804218A431A6022
:100630007B68DB6B7A68126C042191400A005A6077
:100640007B68DB6A002B00D16AE07B68DB6A7A6832
:100650001000984764E07B681B6C02229A401300EC
:10066000FA6813402BD0BB680222134027D07B6866
:100670001B681B68202213400BD17B681B687A68BB
:10068000126812680A218A431A607B6821220121BC
:1006900099547B68DB6B7A68126C022191400A00E6
:1006A0005A607B682022002199547B689B6A002B4A
:1006B00036D07B689B6A7A681000984730E07B6888
:1006C0001B6C08229A401300FA68134028D0BB68BC
:1006D0000822134024D07B681B687A68126812686D
:1006E0000E218A431A607B68DB6B7A68126C0121E9
:1006F00091400A005A607B6801229A637B6821223C
:10070000012199547B682022002199547B681B6B3E
:10071000002B05D07B681B6B7A6810009847FFE7B9
:10072000C046BD4604B080BD80B582B000AF7860E1
:100730007B681B68084A9446634414211800FFF73D
:10074000E3FC03009A007B681A647B68034ADA635F
:10075000C046BD4602B080BDF8FFFDBF00000240AC
:1007600080B586B000AF7860396000237B610023DC
:10077000FB6000233B614FE13B681B6801217A6904
:1007800091400A001340FB60FB68002B00D140E160
:100790003B685B68022B03D03B685B68122B23D15C
:1007A0007B69DA087B6808329200D3583B617B6929
:1007B000072213409B000F229A401300DA433B6943
:1007C00013403B613B681A697B6907210B409B0022
:1007D0009A4013003A6913433B617B69DA087B68EE
:1007E000083292003969D1507B681B683B617B6994
:1007F0005B0003229A401300DA433B6913403B61DC
:100800003B685B6803221A407B695B009A401300D7
:100810003A6913433B617B683A691A603B685B68DD
:10082000012B0BD03B685B68022B07D03B685B68F1
:10083000112B03D03B685B68122B30D17B689B681F
:100840003B617B695B0003229A401300DA433B69FA
:1008500013403B613B68DA687B695B009A40130098
:100860003A6913433B617B683A699A607B685B68CD
:100870003B6101227B699A401300DA433B691340D4
:100880003B613B685B681B0901221A407B699A4007
:1008900013003A6913433B617B683A695A607B688D
:1008A000DB683B617B695B0003229A401300DA43FB
:1008B0003B6913403B613B689A687B695B009A40E7
:1008C00013003A6913433B617B683A69DA603B681D
:1008D0005A6880235B05134000D19AE0544B544A78
:1008E000926901210A439A61514B9B69012213408D
:1008F000BB60BB684F4A7B699B0802339B009B58D7
:100900003B617B69032213409B000F229A40130036
:10091000DA433B6913403B617A689023DB059A42D6
:1009200013D07B68444A93420DD07B68434A93427C
:1009300007D07B68424A934201D1032306E0052396
:1009400004E0022302E0012300E000237A6903218E
:100950000A40920093403A6913433B6135497B69F1
:100960009B0802339B003A695A50364B1B683B6127
:10097000FB68DA433B6913403B613B685A6880235C
:100980005B02134003D03A69FB6813433B612D4B74
:100990003A691A602B4B5B683B61FB68DA433B6941
:1009A00013403B613B685A6880239B02134003D08D
:1009B0003A69FB6813433B61224B3A695A60214B09
:1009C0009B683B61FB68DA433B6913403B613B68D2
:1009D0005A6880235B03134003D03A69FB681343D2
:1009E0003B61184B3A699A60164BDB683B61FB68C8
:1009F000DA433B6913403B613B685A6880239B03A1
:100A0000134003D03A69FB6813433B610D4B3A69CD
:100A1000DA607B6901337B613B681A687B69DA4085
:100A2000131E00D0A8E6C046BD4606B080BDC04635
:100A30000010024000000140000400480008004887
:100A4000000C00480004014080B582B000AF78601F
:100A500008001100BB1C021C1A807B1C0A1C1A70A7
:100A60007B1C1B78002B04D0BB1C1A887B689A6106
:100A700003E0BB1C1A887B689A62C046BD4602B080
:100A800080BD000080B582B000AF78607B68002B2D
:100A900001D1012381E07B6841229B5CDBB2002B0A
:100AA00007D17B684022002199547B68180002F02E
:100AB000D9FA7B684122242199547B681B687A68A3
:100AC0001268126801218A431A607B681B687A6881
:100AD000526834490A401A617B681B687A68126858
:100AE000926831490A409A607B68DB68012B08D123
:100AF0007B681B687A689268802109020A439A60C1
:100B000007E07B681B687A689268842109020A43BF
:100B10009A607B68DB68022B04D17B681B688022AB
:100B200012015A607B681B687A68126852681F4914
:100B30000A435A607B681B687A681268D2681A494F
:100B40000A40DA607B681B687A6811697A685269C2
:100B500011437A68926912020A43DA607B681B6863
:100B60007A68D1697A68126A0A431A607B681B68DE
:100B70007A681268126801210A431A607B680022B1
:100B80005A647B684122202199547B6800221A63B1
:100B90007B6842220021995400231800BD4602B010
:100BA00080BDC046FFFFFFF0FF7FFFFF0080000217
:100BB00090B589B002AFF8600C00100019000A234C
:100BC000FB18221C1A800823FB18021C1A80BB1D6C
:100BD0000A1C1A8000237B61FB6841229B5CDBB20C
:100BE000202B00D01CE1BB6A002B04D02C23FB1867
:100BF0001B88002B01D1012313E1FB6840229B5C81
:100C0000012B01D102230CE1FB6840220121995400
:100C1000FFF742FB03007B6180231902F8687B69C0
:100C200000931923012200F094F9031E01D003233D
:100C3000F7E0FB68412221219954FB6842224021C0
:100C40009954FB6800225A64FB68BA6A5A62FB68CE
:100C50002C22BA1812885A85FB6800225A63BB1DE1
:100C60001C880823FB181A880A23FB181988F868BF
:100C70007B6901933B6B0093230000F0D9F8031EBE
:100C80000FD0FB685B6C042B05D1FB684022002170
:100C900099540123C5E0FB684022002199540323A5
:100CA000BFE0FB685B8D9BB2FF2B11D9FB68FF2275
:100CB0001A85FB681B8DDAB280235C040A23FB18BB
:100CC0001988F86800230093230000F055FA12E019
:100CD000FB685B8D9AB2FB681A85FB681B8DDAB2E4
:100CE00080239C040A23FB181988F86800230093CA
:100CF000230000F041FA7A69396BFB68180000F0B4
:100D000061F9031E07D0FB685B6C042B01D1012342
:100D100087E0032385E0FB681B68FA68526A501C71
:100D2000F968486212789A62FB685B8D9BB2013B5E
:100D30009AB2FB685A85FB681B8D013B9AB2FB682F
:100D40001A85FB681B8D002B3BD1FB685B8D9BB22A
:100D5000002B36D03A6BF8687B69009313000022B1
:100D6000802100F0F6F8031E01D0032359E0FB6850
:100D70005B8D9BB2FF2B11D9FB68FF221A85FB68A4
:100D80001B8DDAB280235C040A23FB181988F868EB
:100D900000230093230000F0EFF912E0FB685B8D65
:100DA0009AB2FB681A85FB681B8DDAB280239C041B
:100DB0000A23FB181988F86800230093230000F029
:100DC000DBF9FB685B8D9BB2002B94D17A69396BA0
:100DD000FB68180000F035F9031E07D0FB685B6C58
:100DE000042B01D101231CE003231AE0FB681B68DC
:100DF0002022DA61FB681B68FA68126852680B49A6
:100E00000A405A60FB68412220219954FB68422223
:100E100000219954FB68402200219954002300E0EE
:100E200002231800BD4607B090BDC04600E800FE92
:100E300090B587B002AFF8600C00100019000A23CB
:100E4000FB18221C1A800823FB18021C1A80BB1DE9
:100E50000A1C1A80BB1D1B88DAB280235C040A239B
:100E6000FB181988F86880239B010093230000F089
:100E700083F97A6A396AFB68180000F0A3F8031E48
:100E800007D0FB685B6C042B01D101233BE00323FB
:100E900039E0BB1D1B88012B07D1FB681B680822AA
:100EA000BA181288D2B29A621FE0FB681B68082247
:100EB000BA181288120A92B2D2B29A627A6A396A5F
:100EC000FB68180000F07EF8031E07D0FB685B6C1F
:100ED000042B01D1012316E0032314E0FB681B68F7
:100EE0000822BA181288D2B29A623A6AF8687B6A03
:100EF000009313000022802100F02BF8031E01D084
:100F0000032300E000231800BD4605B090BD80B566
:100F100082B000AF78607B681B689B690222134037
:100F2000022B03D17B681B6800229A627B681B68D6
:100F30009B6901221340012B07D07B681B687A68EC
:100F40001268926901210A439A61C046BD4602B007
:100F500080BD80B584B000AFF860B9603B60FB1D18
:100F60001A701BE03B68013318D03B68002B07D098
:100F7000FFF792F90200BB69D21A3B689A420DD979
:100F8000FB68412220219954FB6842220021995498
:100F9000FB6840220021995403230FE0FB681B6883
:100FA0009B69BA681A40BB68D31A5A425341DBB2F4
:100FB0001A00FB1D1B789A42D4D000231800BD46AE
:100FC00004B080BD80B584B000AFF860B9607A60CD
:100FD0002BE07A68B968FB68180000F06FF8031E10
:100FE00001D0012329E0BB6801331ED0BB68002B70
:100FF00007D0FFF751F902007B68D21ABB689A420A
:1010000013D9FB685B6C20221A43FB685A64FB68A7
:10101000412220219954FB68422200219954FB6807
:10102000402200219954032307E0FB681B689B6959
:1010300002221340022BCCD100231800BD4604B07D
:1010400080BD80B584B000AFF860B9607A6028E0F8
:101050007A68B968FB68180000F030F8031E01D008
:10106000012326E0BB68002B07D0FFF715F902002B
:101070007B68D21ABB689A4213D9FB685B6C20224A
:101080001A43FB685A64FB68412220219954FB688B
:10109000422200219954FB684022002199540323E5
:1010A00007E0FB681B689B6920221340202BCFD1EF
:1010B00000231800BD4604B080BD000080B584B098
:1010C00000AFF860B9607A60FB681B689B6910220A
:1010D0001340102B48D11BE0BB68013318D0BB680C
:1010E000002B07D0FFF7D8F802007B68D21ABB6844
:1010F0009A420DD9FB68412220219954FB68422273
:1011000000219954FB6840220021995403232CE0CC
:10111000FB681B689B6920221340202BDCD1FB68F5
:101120001B681022DA61FB681B682022DA61FB6809
:101130001800FFF7ECFEFB681B68FA68126852683B
:101140000C490A405A60FB6804225A64FB68412239
:1011500020219954FB68422200219954FB684022C7
:1011600000219954012300E000231800BD4604B07B
:1011700080BDC04600E800FE80B586B000AFF860D4
:10118000080011007B600A23FB18021C1A80092347
:10119000FB180A1C1A7000237B61FB681B685B68E4
:1011A0007B617B690F4A13407B610A23FB181B8814
:1011B0009B059A0D0923FB181B781904FF231B04B8
:1011C0000B401A437B681A433B6A13437A69134303
:1011D0007B61FB681B687A695A60C046BD4606B0F1
:1011E00080BDC046009800FC80B582B000AF78603A
:1011F00039607B6841229B5CDBB2202B38D17B6855
:1012000040229B5C012B01D1022332E07B6840220B
:10121000012199547B684122242199547B681B68E1
:101220007A681268126801218A431A607B681B6819
:101230007A681268126811490A401A607B681B6854
:101240007A68126811683A680A431A607B681B68FA
:101250007A681268126801210A431A607B68412289
:10126000202199547B68402200219954002300E0FA
:1012700002231800BD4602B080BDC046FFEFFFFF4D
:1012800080B584B000AF786039600023FB607B6874
:1012900041229B5CDBB2202B39D17B6840229B5CD6
:1012A000012B01D1022333E07B68402201219954B4
:1012B0007B684122242199547B681B687A681268F4
:1012C000126801218A431A607B681B681B68FB60F7
:1012D000FB68114A1340FB603B681B02FA6813432A
:1012E000FB607B681B68FA681A607B681B687A6819
:1012F0001268126801210A431A607B68412220218A
:1013000099547B68402200219954002300E0022375
:101310001800BD4604B080BDFFF0FFFF80B586B069
:1013200000AF786000233B617B681B68012213409B
:1013300000D18DE0C34B5B680C221340042B0ED010
:10134000C04B5B680C221340082B16D1BD4B5A686A
:1013500080235B021A4080235B029A420DD1B94B75
:101360001A6880239B02134000D170E07B685B68A1
:10137000002B00D06BE00123B5E27B685B68012B9A
:1013800007D1B04BAF4A1268802149020A431A6064
:101390002FE07B685B68002B0CD1AA4BA94A12682E
:1013A000A9490A401A60A74BA64A1268A7490A40F1
:1013B0001A601EE07B685B68052B0ED1A14BA14A29
:1013C00012688021C9020A431A609E4B9D4A126826
:1013D000802149020A431A600BE09A4B994A12682D
:1013E00099490A401A60974B964A126897490A40F1
:1013F0001A607B685B68002B14D0FEF74DFF03007A
:101400003B6108E0FEF748FF02003B69D31A642BFA
:1014100001D9032367E28B4B1A6880239B02134098
:10142000F0D015E0FEF738FF03003B6108E0FEF75F
:1014300033FF02003B69D31A642B01D9032352E224
:10144000804B1A6880239B021340F0D100E0C04615
:101450007B681B680222134000D169E0794B5B680E
:101460000C2213400BD0774B5B680C221340082BE7
:101470001CD1744B5A6880235B02134016D1714B08
:101480001B680222134005D07B68DB68012B01D06A
:10149000012328E26B4A6B4B1B68F8218B43190030
:1014A0007B681B69DB000B43136041E07B68DB68F2
:1014B000002B24D0634B634A126801210A431A604F
:1014C000FEF7EAFE03003B6108E0FEF7E5FE0200DE
:1014D0003B69D31A022B01D9032304E2594B1B6841
:1014E00002221340F1D0574A564B1B68F8218B4318
:1014F00019007B681B69DB000B43136018E0514B3C
:10150000504A126801218A431A60FEF7C5FE0300A3
:101510003B6108E0FEF7C0FE02003B69D31A022BD4
:1015200001D90323DFE1474B1B6802221340F1D1AD
:101530007B681B680822134036D07B68DB69002B70
:1015400019D0404B3F4A526A01210A435A62FEF7C2
:10155000A3FE03003B6108E0FEF79EFE02003B692C
:10156000D31A022B01D90323BDE1364B5B6A022259
:101570001340F1D018E0334B324A526A01218A43BA
:101580005A62FEF789FE03003B6108E0FEF784FE25
:1015900002003B69D31A022B01D90323A3E1294B93
:1015A0005B6A02221340F1D17B681B68042213405E
:1015B00000D1B5E01723FB1800221A70214BDA691D
:1015C00080235B05134011D11E4B1E4AD269802136
:1015D00049050A43DA611B4BDA6980235B05134036
:1015E000FB60FB681723FB1801221A70184B1A685E
:1015F00080235B0013401AD1154B154A12688021D5
:1016000049000A431A60FEF747FE03003B6108E009
:10161000FEF742FE02003B69D31A642B01D9032373
:1016200061E10B4B1A6880235B001340F0D07B68AC
:101630009B68012B0ED1034B024A126A01210A4317
:101640001A6235E000100240FFFFFEFFFFFFFBFFC4
:10165000007000407B689B68002B0CD1A44BA44A0F
:10166000126A01218A431A62A14BA14A126A04211B
:101670008A431A621CE07B689B68052B0CD19C4B4B
:101680009B4A126A04210A431A62994B984A126AC9
:1016900001210A431A620BE0954B954A126A012117
:1016A0008A431A62924B924A126A04218A431A624E
:1016B0007B689B68002B14D0FEF7EEFD03003B61B6
:1016C00009E0FEF7E9FD02003B69D31A894A93421B
:1016D00001D9032307E1864B1B6A02221340F0D095
:1016E00013E0FEF7D9FD03003B6109E0FEF7D4FDEE
:1016F00002003B69D31A7F4A934201D90323F2E0E7
:101700007B4B1B6A02221340F0D11723FB181B7876
:10171000012B05D1764B764AD26977490A40DA61C6
:101720007B681B681022134063D07B685B69012BC8
:101730002AD16F4B6E4A526B04210A435A636C4B99
:101740006B4A526B01210A435A63FEF7A5FD030061
:101750003B6108E0FEF7A0FD02003B69D31A022BB3
:1017600001D90323BFE0624B5B6B02221340F1D02F
:101770005F4A5F4B5B6BF8218B4319007B689B6969
:10178000DB000B43536334E07B685B69053311D1A5
:10179000574B574A526B04218A435A63544A544B5D
:1017A0005B6BF8218B4319007B689B69DB000B4363
:1017B00053631EE04E4B4E4A526B04210A435A6358
:1017C0004B4B4B4A526B01218A435A63FEF764FD2F
:1017D00003003B6108E0FEF75FFD02003B69D31A9E
:1017E000022B01D903237EE0414B5B6B02221340A5
:1017F000F1D17B681B6A002B00D173E03C4B5B6826
:101800000C221340082B00D16AE07B681B6A022B74
:101810004BD1374B364A126838490A401A60FEF7F6
:101820003BFD03003B6108E0FEF736FD02003B692B
:10183000D31A022B01D9032355E02D4B1A688023BC
:101840009B041340F0D12A4A294BDB6A0F218B43BA
:1018500019007B68DB6A0B43D362254A244B5B6823
:10186000274919407B68986A7B685B6A03430B438E
:1018700053601F4B1E4A1268802149040A431A60B4
:10188000FEF70AFD03003B6108E0FEF705FD0200DC
:101890003B69D31A022B01D9032324E0144B1A68A5
:1018A00080239B041340F0D01CE0114B104A1268B7
:1018B00012490A401A60FEF7EFFC03003B6108E0A2
:1018C000FEF7EAFC02003B69D31A022B01D903237D
:1018D00009E0074B1A6880239B041340F0D101E014
:1018E000012300E000231800BD4606B080BDC046BD
:1018F0000010024088130000FFFFFFEFFFFFFFFE14
:10190000FFFFC2FF80B584B000AF7860396000236C
:10191000FB60694B1B6801221A403B689A4211D256
:10192000654B654A126801218A4311003A680A43EF
:101930001A60614B1B6801221A403B689A4201D031
:101940000123B5E07B681B680222134009D05B4A83
:101950005A4B5B68F0218B4319007B689B680B43F3
:1019600053607B681B680122134000D167E07B68ED
:101970005B68012B07D1514B1A6880239B021340EF
:1019800014D1012394E07B685B68022B07D14B4B99
:101990001A6880239B04134008D1012388E0474B39
:1019A0001B680222134001D1012381E0434A434BCB
:1019B0005B6803218B4319007B685B680B435360B2
:1019C000FEF76AFC0300FB607B685B68012B11D1AA
:1019D00009E0FEF761FC0200FB68D31A384A934223
:1019E00001D9032364E0354B5B680C221340042BC0
:1019F000EFD124E07B685B68022B1BD109E0FEF786
:101A00004BFC0200FB68D31A2D4A934201D90323F1
:101A10004EE02A4B5B680C221340082BEFD10EE0FE
:101A2000FEF73AFC0200FB68D31A254A934201D91B
:101A300003233DE0214B5B680C221340F0D11E4B89
:101A40001B6801221A403B689A4211D91A4B1A4A64
:101A5000126801218A4311003A680A431A60164B42
:101A60001B6801221A403B689A4201D001231FE003
:101A70007B681B680422134008D0104A0F4B5B6838
:101A8000104919407B68DB680B43536000F020F875
:101A900001000A4B5B681B090F2213400A4AD35C02
:101AA0000A00DA40094B1A600020FEF7CDFB002344
:101AB0001800BD4604B080BD002002400010024066
:101AC00088130000FFF8FFFF3C3C000800000020E6
:101AD00090B58FB000AF1423FB18284A13CA13C364
:101AE00012681A603B1D264A13CA13C312681A6093
:101AF0000023FB620023BB6200237B6300237B6225
:101B000000233B631F4B5B68FB62FB6A0C221340A4
:101B1000042B02D0082B03D027E01B4B3B6327E0AC
:101B2000FB6A9B0C0F2213401422BA18D35C7B6211
:101B3000144BDB6A0F2213403A1DD35CBB62FA6A76
:101B400080235B02134009D0B96A0F48FEF7DCFA24
:101B500003001A007B6A53437B6303E07B6A0B4AF2
:101B600053437B637B6B3B6302E0094B3B63C046A3
:101B70003B6B1800BD460FB090BDC046243B00082B
:101B8000343B0008001002400024F40000093D002E
:101B900000127A0080B500AF024B1B681800BD46EA
:101BA00080BDC0460000002080B500AFFFF7F2FF07
:101BB0000100064B5B681B0A07221340044AD35CF2
:101BC000D9400B001800BD4680BDC0460010024041
:101BD0004C3C000880B586B000AF786000233B61C4
:101BE0000023FB607B681A6880235B02134000D1EE
:101BF0008EE01723FB1800221A70574BDA698023F6
:101C00005B05134011D1544B534AD26980214905D9
:101C10000A43DA61504BDA6980235B051340BB60ED
:101C2000BB681723FB1801221A704C4B1A688023DB
:101C30005B0013401AD1494B484A12688021490081
:101C40000A431A60FEF728FB03003B6108E0FEF739
:101C500023FB02003B69D31A642B01D9032376E0EE
:101C60003E4B1A6880235B001340F0D03A4B1A6A4F
:101C7000C0239B001340FB60FB68002B34D07B68C3
:101C80005A68C0239B001A40FB689A422CD0324B02
:101C90001B6A334A1340FB602F4B2F4A126A802184
:101CA00049020A431A622C4B2B4A126A2D490A40F8
:101CB0001A62294BFA681A62FB680122134013D09A
:101CC000FEF7EAFA03003B6109E0FEF7E5FA0200DD
:101CD0003B69D31A244A934201D9032337E01E4BB0
:101CE0001B6A02221340F0D01B4A1B4B1B6A1C4983
:101CF00019407B685B680B4313621723FB181B7842
:101D0000012B05D1144B144AD26918490A40DA61F3
:101D10007B681B680122134009D00F4A0E4B1B6BD6
:101D200003218B4319007B689B680B4313637B681B
:101D30001B682022134009D0074A074B1B6B102158
:101D40008B4319007B68DB680B4313630023180087
:101D5000BD4606B080BDC046001002400070004085
:101D6000FFFCFFFFFFFFFEFF88130000FFFFFFEFF8
:101D700080B582B000AF78607B68002B01D1012371
:101D80001EE07B683D229B5CDBB2002B07D17B68A9
:101D90003C22002199547B68180001F007FD7B6804
:101DA0003D22022199547B681A687B68043319002C
:101DB000100000F029F97B683D220121995400238D
:101DC0001800BD4602B080BD80B582B000AF78601B
:101DD0007B68002B01D101231EE07B683D229B5CC8
:101DE000DBB2002B07D17B683C22002199547B6831
:101DF000180001F0BDFC7B683D22022199547B68EC
:101E00001A687B6804331900100000F0FDF87B6845
:101E10003D220121995400231800BD4602B080BD27
:101E200080B582B000AF786039607B681B68396824
:101E30000122180000F04EFB7B681B68134A934296
:101E400009D07B681B68124A934204D07B681B68E8
:101E5000104A934201D1012300E00023002B08D057
:101E60007B681B687A681268526C802109020A43F9
:101E70005A647B681B687A681268126801210A43F9
:101E80001A6000231800BD4602B080BD002C01403E
:101E9000004401400048014080B584B000AFF860C4
:101EA000B9607A60FB683C229B5C012B01D1022364
:101EB000A4E0FB683C2201219954FB683D220221E9
:101EC00099547B68042B29D002D8002B05D08CE0D4
:101ED000082B46D00C2B65D087E0FB681B68BA68DE
:101EE0001100180000F0FEF8FB681B68FA68126821
:101EF000926908210A439A61FB681B68FA681268B4
:101F0000926904218A439A61FB681B68FA68126827
:101F10009169BA6812690A439A6166E0FB681B68B6
:101F2000BA681100180000F061F9FB681B68FA68D4
:101F300012689269802109010A439A61FB681B6853
:101F4000FA68126892692F490A409A61FB681B6817
:101F5000FA6812689169BA68126912020A439A61B2
:101F600043E0FB681B68BA681100180000F0C2F972
:101F7000FB681B68FA681268D26908210A43DA61B3
:101F8000FB681B68FA681268D26904218A43DA6127
:101F9000FB681B68FA681268D169BA6812690A435B
:101FA000DA6122E0FB681B68BA681100180000F0D3
:101FB00027FAFB681B68FA681268D2698021090158
:101FC0000A43DA61FB681B68FA681268D2690D4936
:101FD0000A40DA61FB681B68FA681268D169BA685E
:101FE000126912020A43DA61C046FB683D220121F0
:101FF0009954FB683C220021995400231800BD46E7
:1020000004B080BDFFFBFFFF80B584B000AF7860F7
:1020100039600023FB607B681B68FB607B682B4A90
:10202000934203D07B682A4A934208D1FB6870220E
:102030009343FB603B685B68FA681343FB607B6813
:10204000224A93420FD07B68214A93420BD07B688F
:10205000204A934207D07B681F4A934203D07B6893
:102060001E4A934208D1FB681D4A1340FB603B683F
:10207000DB68FA681343FB60FB68802293431A0015
:102080003B685B691343FB607B68FA681A603B68D6
:102090009A687B68DA623B681A687B689A627B6838
:1020A0000A4A934207D07B680B4A934203D07B686D
:1020B0000A4A934203D13B681A697B681A637B68BA
:1020C00001225A61C046BD4604B080BD002C0140CB
:1020D000000400400020004000440140004801404E
:1020E000FFFCFFFF80B586B000AF78603960002349
:1020F000FB6000237B6100233B617B681B6A01223C
:1021000093431A007B681A627B681B6A7B617B6859
:102110005B683B617B689B69FB60FB687022934353
:10212000FB60FB6803229343FB603B681B68FA6813
:102130001343FB607B69022293437B613B689B688E
:102140007A6913437B617B68234A934207D07B689B
:10215000224A934203D07B68214A93420CD17B6987
:10216000082293437B613B68DB687A6913437B6198
:102170007B69042293437B617B68174A934207D0B3
:102180007B68164A934203D07B68154A934211D16B
:102190003B69144A13403B613B69134A13403B615E
:1021A0003B685B693A6913433B613B689B693A69E9
:1021B00013433B617B683A695A607B68FA689A61AD
:1021C0003B685A687B685A637B687A691A62C046C2
:1021D000BD4606B080BDC046002C01400044014011
:1021E00000480140FFFEFFFFFFFDFFFF80B586B006
:1021F00000AF786039600023FB6000237B6100231F
:102200003B617B681B6A102293431A007B681A6249
:102210007B681B6A7B617B685B683B617B689B6951
:10222000FB60FB682C4A1340FB60FB682B4A1340A1
:10223000FB603B681B681B02FA681343FB607B6909
:10224000202293437B613B689B681B017A6913439F
:102250007B617B68224A93420DD17B698022934344
:102260007B613B68DB681B017A6913437B617B6997
:10227000402293437B617B68194A934207D07B6875
:10228000184A934203D07B68174A934213D13B69A3
:10229000164A13403B613B69154A13403B613B685A
:1022A0005B699B003A6913433B613B689B699B00F8
:1022B0003A6913433B617B683A695A607B68FA6804
:1022C0009A613B685A687B689A637B687A691A628C
:1022D000C046BD4606B080BDFF8FFFFFFFFCFFFF7D
:1022E000002C01400044014000480140FFFBFFFF7B
:1022F000FFF7FFFF80B586B000AF7860396000233C
:10230000FB6000237B6100233B617B681B6A334ACF
:102310001A407B681A627B681B6A7B617B685B681A
:102320003B617B68DB69FB60FB6870229343FB6069
:10233000FB6803229343FB603B681B68FA68134306
:10234000FB607B69264A13407B613B689B681B02EC
:102350007A6913437B617B68224A93420DD17B6982
:10236000214A13407B613B68DB681B027A69134397
:102370007B617B691D4A13407B617B68194A9342EC
:1023800007D07B681A4A934203D07B68194A93426C
:1023900013D13B69184A13403B613B69174A13400C
:1023A0003B613B685B691B013A6913433B613B68D6
:1023B0009B691B013A6913433B617B683A695A6028
:1023C0007B68FA68DA613B685A687B68DA637B6825
:1023D0007A691A62C046BD4606B080BDFFFEFFFFA7
:1023E000FFFDFFFF002C0140FFF7FFFFFFFBFFFF9A
:1023F0000044014000480140FFEFFFFFFFDFFFFF07
:1024000080B586B000AF7860396000233B6100235F
:10241000FB6000237B617B681B6A264A1A407B684D
:102420001A627B681B6AFB607B685B687B617B6808
:10243000DB693B613B69204A13403B613B691F4AB2
:1024400013403B613B681B681B023A6913433B61C5
:10245000FB681B4A1340FB603B689B681B03FA68E0
:102460001343FB607B68174A934207D07B68164A88
:10247000934203D07B68154A934209D17B69144A81
:1024800013407B613B685B699B017A6913437B6105
:102490007B687A695A607B683A69DA613B685A6896
:1024A0007B681A647B68FA681A62C046BD4606B04B
:1024B00080BDC046FFEFFFFFFF8FFFFFFFFCFFFF68
:1024C000FFDFFFFF002C01400044014000480140B5
:1024D000FFBFFFFF80B586B000AFF860B9607A60DB
:1024E00000237B610122BB689A4013007B61FB687B
:1024F0001B6A7A69D2431A40FB681A62FB681A6A3F
:102500007968BB6899400B001A43FB681A62C046A1
:10251000BD4606B080BD80B582B000AF786039603E
:102520007B683C229B5C012B01D1022332E07B685B
:102530003C22012199547B683D22022199547B68F9
:102540001B687A681268526870218A435A607B68F7
:102550001B687A68126851683A6812680A435A60C0
:102560007B681B687A681268926880218A439A6047
:102570007B681B687A68126891683A6852680A43F7
:102580009A607B683D22012199547B683C2200219E
:10259000995400231800BD4602B080BD80B582B0BA
:1025A00000AF78607B68002B01D1012347E07B6896
:1025B00069229B5CDBB2002B07D17B68682200217B
:1025C00099547B68180001F0B3F97B6869222421D3
:1025D00099547B681B687A681268126801218A43E3
:1025E0001A607B68180000F043F90300012B01D149
:1025F000012324E07B685B6A002B03D07B68180012
:1026000000F094FA7B681B687A68126852680E4979
:102610000A405A607B681B687A68126892680821D1
:102620008A439A607B681B687A6812681268012185
:102630000A431A607B68180000F024FB03001800AE
:10264000BD4602B080BDC046FFF7FFFF80B586B033
:1026500000AF78607B681B68DB697B617B681B6807
:102660001B683B617B690F221340FB60FB68002BFA
:102670000CD17B692022134008D03B6920221340F3
:1026800004D07B68180000F0BBFBD3E07B681B68BC
:102690009B68BB60FB68002B00D1AFE0BB680122E8
:1026A000134005D13A6990235B00134000D1A5E0A7
:1026B0007B69012213400ED03A6980235B001340EE
:1026C00009D07B681B6801221A627B68DB6E0122DD
:1026D0001A437B68DA667B69022213400DD0BB681F
:1026E0000122134009D07B681B6802221A627B68B2
:1026F000DB6E04221A437B68DA667B69042213408E
:102700000DD0BB680122134009D07B681B680422EE
:102710001A627B68DB6E02221A437B68DA667B6989
:102720000822134011D03B692022134003D1BB681B
:102730000122134009D07B681B6808221A627B685B
:10274000DB6E08221A437B68DA667B68DB6E002B3F
:1027500000D16EE07B692022134007D03B69202224
:10276000134003D07B68180000F04AFB7B68DB6EE7
:102770000822134005D17B681B689B6840221340E8
:1027800032D07B68180000F095FA7B681B689B6864
:102790004022134023D07B681B687A6812689268D5
:1027A00040218A439A607B685B6E002B12D07B6865
:1027B0005B6E224A5A637B685B6E1800FDF7CCFEA5
:1027C000031E19D07B685B6E5A6B7B685B6E1800CA
:1027D000904711E07B68180000F042F80CE07B683D
:1027E000180000F03DF807E07B68180000F038F8AA
:1027F0007B680022DA661CE0C0461AE07B69802212
:10280000134008D03B698022134004D07B68180035
:1028100000F085FA0EE07B69402213400AD03B6944
:102820004022134006D07B68180000F0CFFAC04663
:1028300000E0C046BD4606B080BDC046F12C000891
:1028400080B582B000AF7860C046BD4602B080BDA2
:1028500080B582B000AF7860C046BD4602B080BD92
:1028600080B582B000AF7860C046BD4602B080BD82
:1028700090B587B000AF78600023FB601723FB188A
:1028800010221A700A23FB1800221A801423FB1846
:1028900000221A801323FB1800221A707B689A68A2
:1028A0007B681B691A437B685B691A437B68DB6939
:1028B0001343FB607B681B687A681268126895494D
:1028C0001140FA680A431A607B681B687A681268CC
:1028D0005268914911407A68D2680A435A607B680D
:1028E0009A697B681B6A1343FB607B681B687A6884
:1028F0001268926889491140FA680A439A60884BC5
:102900001B6B03221340012B0FD004D3022B11D0D9
:10291000032B05D013E01723FB1800221A7012E0D6
:102920001723FB1802221A700DE01723FB1804224C
:102930001A7008E01723FB1808221A7003E0172307
:10294000FB1810221A70C0467B68DA6980231B02CC
:102950009A4200D07BE01723FB181B78022B1CD077
:1029600002DC002B05D04FE0042B27D0082B39D0F8
:102970004AE0FFF719F903005A007B685B685B08BF
:10298000D2187B685B6819001000FDF7BDFB0300DF
:102990001A001423FB181A803BE07B685B685B0815
:1029A000604A9A187B685B6819001000FDF7ACFB61
:1029B00003001A001423FB181A802AE0FFF788F896
:1029C00003005A007B685B685B08D2187B685B6811
:1029D00019001000FDF798FB03001A001423FB18E0
:1029E0001A8016E07B685B685B08802252029A18A6
:1029F0007B685B6819001000FDF786FB03001A0076
:102A00001423FB181A8004E01323FB1801221A7008
:102A1000C0460A23FB181422BA1812880F218A43D1
:102A20001A801423FB181B885B109BB207221340EB
:102A300099B20A23FB180A22BA1812880A431A808C
:102A40007B681B680A22BA181288DA605BE01723D9
:102A5000FB181B78022B1BD002DC002B05D04DE0AD
:102A6000042B26D0082B37D048E07B681C68FFF782
:102A70009BF802007B685B685B08D2187B685B6828
:102A800019001000FDF740FB03009BB2E3603AE041
:102A90007B681C687B685B685B08234A9A187B68C4
:102AA0005B6819001000FDF72FFB03009BB2E36089
:102AB00029E07B681C68FFF70BF802007B685B6805
:102AC0005B08D2187B685B6819001000FDF71CFBDF
:102AD00003009BB2E36016E07B681C687B685B6860
:102AE0005B08802212029A187B685B68190010004C
:102AF000FDF70AFB03009BB2E36004E01323FB181D
:102B000001221A70C0461323FB181B781800BD461B
:102B100007B090BDF369FFFFFFCFFFFFFFF4FFFF9A
:102B2000001002400024F40000127A0080B582B048
:102B300000AF78607B685B6A012213400AD07B6833
:102B40001B687A6812685268454911407A68926A2F
:102B50000A435A607B685B6A022213400AD07B6892
:102B60001B687A68126852683E4911407A68D26AD6
:102B70000A435A607B685B6A042213400AD07B6870
:102B80001B687A6812685268374911407A68126B7C
:102B90000A435A607B685B6A082213400AD07B684C
:102BA0001B687A6812685268304911407A68526B23
:102BB0000A435A607B685B6A102213400AD07B6824
:102BC0001B687A6812689268294911407A68926B8A
:102BD0000A439A607B685B6A202213400AD07B68B4
:102BE0001B687A6812689268224911407A68D26B31
:102BF0000A439A607B685B6A402213401BD07B6863
:102C00001B687A68126852681B4911407A68126C16
:102C10000A435A607B681A6C80235B039A420AD18C
:102C20007B681B687A6812685268144911407A6898
:102C3000526C0A435A607B685B6A802213400AD058
:102C40007B681B687A68126852680D4911407A687F
:102C5000926C0A435A60C046BD4602B080BDC04671
:102C6000FFFFFDFFFFFFFEFFFFFFFBFFFF7FFFFFFB
:102C7000FFEFFFFFFFDFFFFFFFFFEFFFFFFF9FFF04
:102C8000FFFFF7FF80B582B000AF78607B6800225D
:102C9000DA667B686922202199547B686A222021A8
:102CA00099547B6868220021995400231800BD467E
:102CB00002B080BD80B582B000AF78607B681B68D1
:102CC0007A681268126809490A401A607B681B68B2
:102CD0007A681268926801218A439A607B686A2246
:102CE00020219954C046BD4602B080BDDFFEFFFFE3
:102CF00080B584B000AF78607B685B6AFB60FB687E
:102D00005A2200219952FB68522200219952FB68F5
:102D10001800FFF7A5FDC046BD4604B080BD80B5D4
:102D200084B000AF78607B6869229B5CDBB2212BAA
:102D300047D17B6852229B5A9BB2002B11D17B68F2
:102D40001B687A681268126880218A431A607B685F
:102D50001B687A681268126840210A431A600023CF
:102D600030E07B689A6880235B019A4214D17B68CB
:102D70001B69002B10D17B68DB6CFB607B681B68D8
:102D8000FA681288D205D20D92B21A857B68DB6C84
:102D90009A1C7B68DA6409E07B6819687B68DB6CE5
:102DA000581C7A68D0641B789BB20B857B685222D2
:102DB0009B5A9BB2013B99B27B68522299520023E5
:102DC00000E002231800BD4604B080BD80B582B08B
:102DD00000AF78607B681B687A68126812684021CF
:102DE0008A431A607B686922202199547B68180005
:102DF000FFF726FD00231800BD4602B080BD00008D
:102E000080B584B000AF78600E23FB187A685C212F
:102E1000525A1A807B686A229B5CDBB2222B5AD101
:102E20007B681A680C23FB18928C1A807B689A685E
:102E300080235B019A4216D17B681B69002B12D15B
:102E40007B685B6DBB600C23FB180E22BA181B88D5
:102E5000128813409AB2BB681A807B685B6D9A1C1B
:102E60007B685A650FE07B685B6D591C7A68516519
:102E70000C22BA181288D2B20E2179180988C9B268
:102E80000A40D2B21A707B685A229B5A9BB2013B0D
:102E90009BB27A685A21181C5052002B19D17B68BA
:102EA0001B687A681268126811490A401A607B68C8
:102EB0001B687A681268926801218A439A607B686D
:102EC0006A22202199547B681800FFF7C1FC002377
:102ED0000AE0002308E07B681B687A681268926940
:102EE00008210A439A6102231800BD4604B080BD40
:102EF000DFFEFFFF80B588B000AF264B254A526940
:102F00008021C9030A435A61224B5A698023DB039B
:102F10001340BB60BB681F4B1E4A52698021890267
:102F20000A435A611B4B5A6980239B0213407B6002
:102F30007B68184B174A52698021C9020A435A61BB
:102F4000144B5A698023DB0213403B603B6890239B
:102F5000DB050022E2211800FDF776FD0C23FB18AB
:102F6000E2221A600C23FB1801225A600C23FB1882
:102F700000229A600C23FB180022DA600C23FA1856
:102F80009023DB0511001800FDF7EAFBC046BD46A3
:102F900008B080BD0010024080B582B000AF0200D2
:102FA000FB1D1A709023DB050022E0211800FDF7BD
:102FB0004BFDFB1D1B7899B29023DB050122180005
:102FC000FDF742FDC046BD4602B080BD80B500AFF2
:102FD000204B214A1A601F4B204A5A601D4B002289
:102FE0009A601C4B0122DA601A4B00221A61194BBD
:102FF00000225A61174B00229A61164B0022DA61B7
:10300000144B00221A62134B1800FDF73BFD031E00
:1030100004D0134B1B21180000F02CF90D4B00219C
:103020001800FEF7E1F8031E04D00D4B2221180012
:1030300000F020F9074B00211800FEF721F9031ECC
:1030400004D0074B2921180000F014F9C046BD46F2
:1030500080BDC04628000020005400405D3E302066
:10306000443B000880B588B000AF78607B681B687F
:10307000184A93422AD10C23FB18C022D2001A60AE
:103080000C23FB1812225A600C23FB1801229A60B1
:103090000C23FB180322DA600C23FB1804221A61AC
:1030A0000C23FA189023DB0511001800FDF758FBDC
:1030B000094B094AD269802189030A43DA61064B28
:1030C000DA6980239B031340BB60BB68C046BD46E2
:1030D00008B080BD005400400010024090B58BB095
:1030E00004AF04000800BA6019000E23FB18221C6C
:1030F0001A800C23FB18021C1A80BB1D0A1C1A80A4
:103100001723FC180C23FB181A880E23FB181988A8
:10311000094864230293BB1D1B880193BB6800937D
:103120000123FDF745FD030023701723FB181B78CF
:103130001800BD4607B090BD2800002080B500AF44
:10314000FDF76EF800F01CF8FFF7D4FEFFF73EFF26
:1031500000F0B8FB642000F0BFF98020FFF71CFFEF
:1031600000F0F8F84020FFF717FF642000F0B4F9F2
:1031700000F008FA00F0A4FA2020FFF70DFFFEE7A8
:1031800080B594B000AF2023FB1802221A602023E0
:10319000FB180122DA602023FB1810221A61202379
:1031A000FB1802221A622023FB1800225A622023F5
:1031B000FB18C02252039A622023FB180022DA6215
:1031C0002023FB181800FEF7A9F8031E04D0284B93
:1031D0005521180000F04EF81023FB1807221A6042
:1031E0001023FB1802225A601023FB1800229A6059
:1031F0001023FB180022DA601023FB1801211800AD
:10320000FEF780FB031E04D0194B6221180000F06A
:1032100031F83B0021221A603B0000229A603B00FB
:103220001022DA603B001800FEF7D4FC031E04D025
:103230000F4B6A21180000F01DF8FEF7ABFC0200EE
:10324000FA2399001000FCF75FFF03001800FDF758
:10325000FBF80420FDF706F901235B420022002160
:103260001800FDF7CBF8C046BD4614B080BDC0467F
:10327000543B000880B582B000AF786039602020F0
:10328000FFF78AFEFEE7000080B582B000AF194B61
:10329000184A926901210A439A61164B9B690122DF
:1032A00013407B607B68134B124AD2698021490529
:1032B0000A43DA610F4BDA6980235B0513403B60F8
:1032C0003B6805235B42002200211800FDF796F8B9
:1032D00002235B42002200211800FDF78FF8012332
:1032E0005B42002200211800FDF788F8C046BD4669
:1032F00002B080BD00100240B0B584B000AF3960AC
:103300001100BB1D021C1A803B1D0A1C1A800E23D3
:10331000FB18C0221A800D23FC183B1D1D883A683B
:10332000BB1D19880E23FB1818882B00FFF7D6FE4B
:10333000030023700D23FB181B78002B04D0044BD3
:103340004E211800FFF796FFC046BD4604B0B0BD41
:10335000643B000880B582B000AF3B1D00221A70AC
:10336000BB1D18221A80391DBB1D1B8801221800A5
:10337000FFF7C2FF3B1DFF221A70BB1D03221A80FC
:10338000391DBB1D1B8801221800FFF7B5FFBB1DAF
:103390000F221A803B1D80221A707B1D00221A709A
:1033A00010E0BB1D1A88BB1D01321A80391DBB1DE0
:1033B0001B8801221800FFF79FFF7B1D1A787B1DD9
:1033C00001321A707B1D1B78072BEAD97B1D002266
:1033D0001A701CE07B1D1978BB1D1E4A89008A5A91
:1033E0001A807B1D1B781B4A9B00D31802331B8855
:1033F000DAB23B1D1A70391DBB1D1B880122180053
:10340000FFF77AFF7B1D1A787B1D01321A707B1D36
:103410001B78282BDED9BB1DB1221A803B1DAC22A4
:103420001A70391DBB1D1B8801221800FFF764FFAD
:10343000BB1D03221A803B1DFE221A70391DBB1DC5
:103440001B8801221800FFF757FF00231800BD4614
:1034500002B080BD983B000880B500AFC046BD46B5
:1034600080BD80B500AFFEE780B500AFC046BD4669
:1034700080BD80B500AFC046BD4680BD80B500AF01
:10348000054B1B685A1E044B1A60FCF7F9FEFDF74A
:1034900003F8C046BD4680BD2000002080B500AFC7
:1034A000054B1800FDF79EF8044B1800FDF79AF83D
:1034B000C046BD4680BDC046F40000203801002053
:1034C00080B500AF034B1800FFF7C0F8C046BD46FB
:1034D00080BDC0467C01002080B582B000AF78601E
:1034E000054B7A681A60C046034B1B68002BFBD162
:1034F000C046BD4602B080BD2000002080B500AFB0
:103500001A4B1A4A126801210A431A60174B174ACC
:10351000526817490A405A60144B144A12681549F8
:103520000A401A60114B114A126813490A401A6086
:103530000E4B0E4A526811490A405A600B4B0B4A17
:10354000D26A0F218A43DA62084B084A126B0C498F
:103550000A401A63054B054A526B01218A435A639C
:10356000024B00229A60C046BD4680BD001002405A
:103570000CB8FF08FFFFF6FEFFFFFBFFFFFFC0FFD9
:10358000ECFEFFFF80B58AB000AF4A4B4A4A1A6092
:10359000484B00225A60474B00229A60454B062256
:1035A000DA60444B00221A61424B00229A61414B7F
:1035B0001800FEF709FC031E04D0404B152118002B
:1035C000FFF758FE2023FB1800221A602023FB1867
:1035D00000225A602023FA18364B11001800FEF71B
:1035E0009AFF031E04D0354B1C211800FFF742FE42
:1035F0003B1D60221A603B1D03225A603B1D0222C4
:103600009A603B1D00221A61391D2A4B0C221800BA
:10361000FEF742FC031E04D0284B25211800FFF7BB
:1036200029FE244B180000F0E1F8224B0C21180071
:10363000FEF7F6FB3B1D60221A603B1D03225A6019
:103640003B1D02229A603B1D04221A61391D194B51
:1036500000221800FEF720FC031E04D0174B342173
:103660001800FFF707FE3B1D60221A603B1D032276
:103670005A603B1D00229A603B1D04221A61391DCD
:103680000C4B04221800FEF707FC031E04D00B4B62
:103690003D211800FFF7EEFD064B00211800FEF754
:1036A000BFFB044B04211800FEF7BAFBC046BD4621
:1036B0000AB080BD7400002000040040783B000880
:1036C00080B588B000AF274B274A1A60254B0022EF
:1036D0005A60244B00229A60224B0422DA60214B6C
:1036E00000221A611F4B00229A611E4B1800FEF740
:1036F0003FFB031E04D01D4B51211800FFF7BAFDFC
:10370000184B1800FEF760FB031E04D0174B562120
:103710001800FFF7AFFD3B1D60221A603B1D02221F
:103720005A603B1D00229A603B1D04221A61391D1C
:103730000C4B00221800FEF7AFFB031E04D00B4B0E
:103740005F211800FFF796FD064B180000F04EF8B9
:10375000044B00211800FEF763FBC046BD4608B0CD
:1037600080BDC046B400002000200040783B000827
:1037700080B584B000AF78607B681B68094A9342CB
:103780000BD1094B084AD26902210A43DA61064B80
:10379000DB6902221340FB60FB68C046BD4604B0F3
:1037A00080BDC046000400400010024080B584B0D7
:1037B00000AF78607B681B680A4A93420DD10A4BC0
:1037C000094AD269802149000A43DA61064BDA6965
:1037D00080235B001340FB60FB68C046BD4604B01D
:1037E00080BDC046002000400010024080B588B077
:1037F00000AF78607B681B682F4A934237D10C2357
:10380000FB1802221A600C23FB1802225A600C23B8
:10381000FB1800229A600C23FB180022DA600C23AC
:10382000FB1801221A610C23FB18244A190010000E
:10383000FCF796FF0C23FB18C0221A600C23FB1820
:1038400002225A600C23FB1800229A600C23FB18FA
:103850000122DA600C23FB1801221A610C23FA18EA
:103860009023DB0511001800FCF77AFF20E07B684D
:103870001B68134A93421BD10C23FB1810221A60B9
:103880000C23FB1802225A600C23FB1800229A60BA
:103890000C23FB180122DA600C23FB1804221A61A6
:1038A0000C23FA189023DB0511001800FCF758FFD1
:1038B000C046BD4608B080BD00040040000400487A
:1038C0000020004080B500AF164B174A1A60154B18
:1038D000E12252025A60134B00229A60114B0022DF
:1038E000DA60104B00221A610E4B0C225A610D4B0C
:1038F00000229A610B4B0022DA610A4B00221A6205
:10390000084B00225A62074B1800FEF747FE031EC1
:1039100004D0064B18211800FFF7ACFCC046BD468A
:1039200080BDC0467C01002000380140883B000873
:1039300080B588B000AF78607B681B68454A9342C9
:1039400000D083E0444B444A92698021C9010A4374
:103950009A61414B9A698023DB011340BB60BB68CD
:103960000C23FB180C221A600C23FB1802225A604D
:103970000C23FB1800229A600C23FB180322DA6048
:103980000C23FB1801221A610C23FA189023DB0583
:1039900011001800FCF7E4FE304B314A1A602F4B3F
:1039A00000225A602D4B00229A602C4B8022DA6054
:1039B0002A4B00221A61294B00225A61274B002210
:1039C0009A61264B0022DA61244B1800FCF770FD47
:1039D000031E04D0234B3E211800FFF74BFC7B68ED
:1039E0001E4A5A661D4B7A685A621F4B1F4A1A605C
:1039F0001D4B10225A601C4B00229A601A4B8022E9
:103A0000DA60194B00221A61174B00225A61164BDB
:103A100000229A61144B0022DA61134B1800FCF764
:103A200047FD031E04D00F4B4E211800FFF722FC68
:103A30007B680D4A1A660C4B7A685A620022002194
:103A40001B20FCF7DBFC1B20FCF7EEFCC046BD4650
:103A500008B080BD0038014000100240380100204D
:103A600030000240883B0008F40000201C000240A7
:103A70000D4885460D480E490E4A002302E0D458F1
:103A8000C4500433C4188C42F9D30B4A0B4C0023A6
:103A900001E013600432A242FBD3FFF72FFD00F0D8
:103AA00011F8FFF74BFBFEE700100020000000209C
:103AB000040000205C3C000804000020EC01002011
:103AC000FEE7000070B500260C4D0D4C641BA410E1
:103AD000A64209D1002600F019F80A4D0A4C641BD1
:103AE000A410A64205D170BDB300EB58984701362B
:103AF000EEE7B300EB5898470136F2E7543C000874
:103B0000543C0008543C0008583C0008F8B5C04636
:103B1000F8BC08BC9E467047F8B5C046F8BC08BC67
:043B20009E46704706
:103B240002030405060708090A0B0C0D0E0F1010FA
:103B34000102030405060708090A0B0C0D0E0F10F9
:103B44002E2E5C5372635C6932632E6300000000A6
:103B54002E2E5C5372635C6D61696E2E63000000EF
:103B64002E2E5C5372635C736935333531612E6379
:103B7400000000002E2E5C5372635C74696D6572E4
:103B84002E6300002E2E5C5372635C756172742E7A
:103B9400630000000200530003000000070000005F
:103BA4000F00000010000F0011008C0012008C00A8
:103BB40013008C0014008C0015008C0016008C007F
:103BC40017008C001A0001001B00F4001C00000008
:103BD4001D000F001E00F7001F0000002000010060
:103BE400210014002A0000002B0002002C00000019
:103BF4002D0040002E0040002F0000003000000087
:103C0400310000005A0000005B0000009500000035
:103C14009600000097000000980000009900000042
:103C24009A0000009B000000A2000000A300000016
:103C3400A4000000B7009200000000000000000093
:103C4400010203040607080900000000010203043E
:043C5400E90000087B
:043C5800C10000089F
:043C5C0000127A00D8
:0400000508003A7144
:00000001FF
